{
  "transactions": [
    {
      "hash": "0x005f8f2f34802dadef82a7f8787b2fcb877c18321ffb4014034e864c4a34129d",
      "transactionType": "CREATE",
      "contractName": "AMB",
      "contractAddress": "0x74C4F8676D88db8929b2250bD74B53a045fA26D5",
      "function": null,
      "arguments": null,
      "transaction": {
        "type": "0x02",
        "from": "0x000000b104d4c918acac32ada679606bc31ae9bb",
        "gas": "0x68965",
        "value": "0x0",
        "data": "0x608060405234801561001057600080fd5b50600080546001600160a01b03191633179055610498806100326000396000f3fe6080604052600436106100345760003560e01c8063150b375f146100395780634ecda17f1461004e578063704b6c0214610084575b600080fd5b61004c610047366004610298565b6100a4565b005b34801561005a57600080fd5b5061006e610069366004610298565b6100f8565b60405161007b919061031f565b60405180910390f35b34801561009057600080fd5b5061004c61009f366004610374565b6101f0565b60006100b08534610396565b90507f5ec4b4254fe4f840b0f2ee94ee4e2d3b44b52badb9327a5b8baa90e75cc8395d81868686866040516100e99594939291906103e4565b60405180910390a15050505050565b6000546060906001600160a01b0316331461012657604051634755657960e01b815260040160405180910390fd5b600080856001600160a01b031687868660405161014492919061041d565b60006040518083038185875af1925050503d8060008114610181576040519150601f19603f3d011682016040523d82523d6000602084013e610186565b606091505b5091509150816101a95760405163054d641960e11b815260040160405180910390fd5b7f829763d44529692683baa887097ac0c1215574f2ddb4958ecda339fe8c0428d9878787876040516101de949392919061042d565b60405180910390a19695505050505050565b6000546001600160a01b0316331461021b57604051634755657960e01b815260040160405180910390fd5b600080546001600160a01b038381166001600160a01b031983168117909355604080519190921680825260208201939093527f189b96616ad644f9909cefe222b0a06d1bfa2113a7b50dc80c33ef5c12cb57de910160405180910390a15050565b80356001600160a01b038116811461029357600080fd5b919050565b600080600080606085870312156102ae57600080fd5b843593506102be6020860161027c565b9250604085013567ffffffffffffffff808211156102db57600080fd5b818701915087601f8301126102ef57600080fd5b8135818111156102fe57600080fd5b88602082850101111561031057600080fd5b95989497505060200194505050565b600060208083528351808285015260005b8181101561034c57858101830151858201604001528201610330565b8181111561035e576000604083870101525b50601f01601f1916929092016040019392505050565b60006020828403121561038657600080fd5b61038f8261027c565b9392505050565b6000828210156103b657634e487b7160e01b600052601160045260246000fd5b500390565b81835281816020850137506000828201602090810191909152601f909101601f19169091010190565b85815284602082015260018060a01b03841660408201526080606082015260006104126080830184866103bb565b979650505050505050565b8183823760009101908152919050565b8481526001600160a01b038416602082015260606040820181905260009061045890830184866103bb565b969550505050505056fea26469706673582212200b72e7667cc2ab3831f07ca986e386b180a49b0ee831558ba5c77f23656efc8664736f6c634300080d0033",
        "nonce": "0x0",
        "accessList": []
      },
      "additionalContracts": []
    },
    {
      "hash": "0x74475295e45c7cdab5a5046a62a9ba85d745cfc1c121dc8e7c96c0b99b66fca5",
      "transactionType": "CREATE",
      "contractName": "Counter",
      "contractAddress": "0xb83D12206fA955398b9260757133326FF66A5F8A",
      "function": null,
      "arguments": null,
      "transaction": {
        "type": "0x02",
        "from": "0x000000b104d4c918acac32ada679606bc31ae9bb",
        "gas": "0x4a1da",
        "value": "0x0",
        "data": "0x608060405234801561001057600080fd5b50610343806100206000396000f3fe60806040526004361061003f5760003560e01c806361bc221a14610044578063b46300ec1461006c578063c0c53b8b14610076578063d09de08a14610096575b600080fd5b34801561005057600080fd5b5061005a60015481565b60405190815260200160405180910390f35b6100746100ab565b005b34801561008257600080fd5b50610074610091366004610237565b61015c565b3480156100a257600080fd5b506100746101d9565b60008054600354604080518082018252600b81526a696e6372656d656e74282960a81b602091820152815163684ef04560e11b9181019190915281516004818303018152602482019283905263150b375f60e01b9092526001600160a01b039384169463150b375f9434946101289492939116919060280161027a565b6000604051808303818588803b15801561014157600080fd5b505af1158015610155573d6000803e3d6000fd5b5050505050565b60025460ff166001036101815760405162dc149f60e41b815260040160405180910390fd5b600080546001600160a01b039485166001600160a01b0319918216179091556002805460038054948716949093169390931790915560ff199290931661010002919091166001600160a81b0319909116176001179055565b6000546001600160a01b0316331461020457604051631d6c1e7160e21b815260040160405180910390fd5b60018054906000610214836102e6565b9190505550565b80356001600160a01b038116811461023257600080fd5b919050565b60008060006060848603121561024c57600080fd5b6102558461021b565b92506102636020850161021b565b91506102716040850161021b565b90509250925092565b8381526000602060018060a01b0385168184015260606040840152835180606085015260005b818110156102bc578581018301518582016080015282016102a0565b818111156102ce576000608083870101525b50601f01601f19169290920160800195945050505050565b60006001820161030657634e487b7160e01b600052601160045260246000fd5b506001019056fea2646970667358221220b6096fa9f17207324436e35abbfbefa03a9cffebe30797d6baa8475f11a121d764736f6c634300080d0033",
        "nonce": "0x1",
        "accessList": []
      },
      "additionalContracts": []
    },
    {
      "hash": "0x3335bf7b61a266f476e10fa56556297f7480a742ebefb2f51867670dfa8e61d4",
      "transactionType": "CALL",
      "contractName": "Counter",
      "contractAddress": "0xb83D12206fA955398b9260757133326FF66A5F8A",
      "function": "initialize(address,address,address)",
      "arguments": [
        "0x74C4F8676D88db8929b2250bD74B53a045fA26D5",
        "0xb83D12206fA955398b9260757133326FF66A5F8A",
        "0xb83D12206fA955398b9260757133326FF66A5F8A"
      ],
      "transaction": {
        "type": "0x02",
        "from": "0x000000b104d4c918acac32ada679606bc31ae9bb",
        "to": "0xb83d12206fa955398b9260757133326ff66a5f8a",
        "gas": "0x1fe3c",
        "value": "0x0",
        "data": "0xc0c53b8b00000000000000000000000074c4f8676d88db8929b2250bd74b53a045fa26d5000000000000000000000000b83d12206fa955398b9260757133326ff66a5f8a000000000000000000000000b83d12206fa955398b9260757133326ff66a5f8a",
        "nonce": "0x2",
        "accessList": []
      },
      "additionalContracts": []
    }
  ],
  "receipts": [
    {
      "transactionHash": "0x005f8f2f34802dadef82a7f8787b2fcb877c18321ffb4014034e864c4a34129d",
      "transactionIndex": "0x3",
      "blockHash": "0x74a47e4579b4d07ee3bd2a6e2fbaa33a3253795318875144cb13b4c724905425",
      "blockNumber": "0x78e57a",
      "from": "0x000000b104d4C918AcaC32AdA679606bc31ae9Bb",
      "to": null,
      "cumulativeGasUsed": "0x777ad",
      "gasUsed": "0x5073a",
      "contractAddress": "0x74C4F8676D88db8929b2250bD74B53a045fA26D5",
      "logs": [],
      "status": "0x1",
      "logsBloom": "0x00000000000000000000000000000000000000000000000000000000000000000000000000000000000000000000000000000000000000000000000000000000000000000000000000000000000000000000000000000000000000000000000000000000000000000000000000000000000000000000000000000000000000000000000000000000000000000000000000000000000000000000000000000000000000000000000000000000000000000000000000000000000000000000000000000000000000000000000000000000000000000000000000000000000000000000000000000000000000000000000000000000000000000000000000000000",
      "type": "0x2",
      "effectiveGasPrice": "0xb6e04ae6"
    },
    {
      "transactionHash": "0x74475295e45c7cdab5a5046a62a9ba85d745cfc1c121dc8e7c96c0b99b66fca5",
      "transactionIndex": "0x4",
      "blockHash": "0x74a47e4579b4d07ee3bd2a6e2fbaa33a3253795318875144cb13b4c724905425",
      "blockNumber": "0x78e57a",
      "from": "0x000000b104d4C918AcaC32AdA679606bc31ae9Bb",
      "to": null,
      "cumulativeGasUsed": "0xb07df",
      "gasUsed": "0x39032",
      "contractAddress": "0xb83D12206fA955398b9260757133326FF66A5F8A",
      "logs": [],
      "status": "0x1",
      "logsBloom": "0x00000000000000000000000000000000000000000000000000000000000000000000000000000000000000000000000000000000000000000000000000000000000000000000000000000000000000000000000000000000000000000000000000000000000000000000000000000000000000000000000000000000000000000000000000000000000000000000000000000000000000000000000000000000000000000000000000000000000000000000000000000000000000000000000000000000000000000000000000000000000000000000000000000000000000000000000000000000000000000000000000000000000000000000000000000000",
      "type": "0x2",
      "effectiveGasPrice": "0xb6e04ae6"
    },
    {
      "transactionHash": "0x3335bf7b61a266f476e10fa56556297f7480a742ebefb2f51867670dfa8e61d4",
      "transactionIndex": "0x5",
      "blockHash": "0x74a47e4579b4d07ee3bd2a6e2fbaa33a3253795318875144cb13b4c724905425",
      "blockNumber": "0x78e57a",
      "from": "0x000000b104d4C918AcaC32AdA679606bc31ae9Bb",
      "to": "0xb83D12206fA955398b9260757133326FF66A5F8A",
      "cumulativeGasUsed": "0xc64c0",
      "gasUsed": "0x15ce1",
      "contractAddress": null,
      "logs": [],
      "status": "0x1",
      "logsBloom": "0x00000000000000000000000000000000000000000000000000000000000000000000000000000000000000000000000000000000000000000000000000000000000000000000000000000000000000000000000000000000000000000000000000000000000000000000000000000000000000000000000000000000000000000000000000000000000000000000000000000000000000000000000000000000000000000000000000000000000000000000000000000000000000000000000000000000000000000000000000000000000000000000000000000000000000000000000000000000000000000000000000000000000000000000000000000000",
      "type": "0x2",
      "effectiveGasPrice": "0xb6e04ae6"
    }
  ],
  "libraries": [],
  "pending": [],
  "path": "/Users/nate/Desktop/succinct/contracts/broadcast/Deploy.s.sol/5/run-latest.json",
  "returns": {},
  "timestamp": 1668017035,
  "commit": "fda4257"
}